:020000040800F2
:1000000078060020ED010008230500081B05000804
:100010001F0500089F0200080B0B000800000000ED
:10002000000000000000000000000000C7070008FA
:10003000A302000800000000A9050008B10800089C
:10004000070200080702000807020008070200086C
:10005000070200080702000807020008070200085C
:100060000702000807020008DD0200080702000876
:10007000070200080702000807020008070200083C
:10008000070200080702000807020008070200082C
:10009000070200080702000807020008070200081C
:1000A000070200080702000807020008070200080C
:1000B00007020008070200080702000807020008FC
:1000C00007020008070200080702000807020008EC
:1000D00007020008150900080702000807020008C7
:1000E00007020008070200080702000800000000DD
:1000F0000000000000000000000000000000000000
:1001000000000000000000000702000807020008CD
:10011000070200080702000807020008070200089B
:10012000070200080702000807020008070200088B
:10013000070200080702000807020008070200087B
:10014000070200080702000807020008070200086B
:1001500000F002F800F03AF80AA090E8000C82449F
:100160008344AAF10107DA4501D100F02FF8AFF27C
:10017000090EBAE80F0013F0010F18BFFB1A43F085
:1001800001031847440E0000640E0000103A24BF1B
:1001900078C878C1FAD8520724BF30C830C144BFEC
:1001A00004680C607047000000230024002500262E
:1001B000103A28BF78C1FBD8520728BF30C148BFCA
:1001C0000B6070471FB51FBD10B510BD00F031F8B2
:1001D0001146FFF7F7FF00F083FD00F04FF803B47E
:1001E000FFF7F2FF03BC00F053F800000948804716
:1001F00009480047FEE7FEE7FEE7FEE7FEE7FEE709
:10020000FEE7FEE7FEE7FEE704480549054A064B20
:1002100070470000B5080008510100087800002070
:10022000780600207802002078020020704770478E
:100230007047754600F028F8AE46050069465346FB
:1002400020F00700854618B020B5FFF7DDFFBDE8B8
:1002500020404FF000064FF000074FF000084FF02D
:10026000000B21F00701AC46ACE8C009ACE8C009BE
:10027000ACE8C009ACE8C0098D4670470446AFF34E
:1002800000802046FFF7ABFF0048704714000020B5
:1002900001491820ABBEFEE726000200704700BFF0
:1002A000FEE7704710B5044600BF02210A4800F07F
:1002B0004FFA0028F9D02146074800F055FA00BF50
:1002C0000121054800F044FA0028F9D0024800F066
:1002D00048FAC0B210BD00000030014070B50026E1
:1002E000FF2000F029FEFF2000F026FE012000F094
:1002F00023FE002509E0FF20FFF7D4FF0446204637
:1003000000F01AFE3019C6B26D1C1B2DF3DB30460F
:1003100000F012FE102000F001F870BD01490860E5
:100320007047000014040140002123498279002A0B
:100330003AD00A46126803689A430B461A600A1DAF
:10034000126803689A430B1D1A60027911440A6807
:1003500003681A430A60184A0832126803689A430D
:10036000154B08331A601A1D126803689A43124B22
:100370000C331A604279102A0ED11A1F12680368D2
:100380001A430D4B08331A601A1D126803681A438A
:10039000094B0C331A600DE00749427911440A6891
:1003A00003681A430A6005E0027911440A68036889
:1003B0009A430A60704700000004014030B50022F3
:1003C0008B071C0F0F2303FA04F20B4B8C1053F80E
:1003D00024309343084C8D1044F8253023468C106C
:1003E00053F824308C07240F00FA04F42343024C02
:1003F0008D1044F8253030BD080001402DE9F04152
:10040000024600250026002000230024002791F842
:1004100003C00CF00F0591F803C00CF0100CBCF1F8
:10042000000F03D091F802C04CEA050591F800C016
:10043000BCF1000F31D0146800202BE04FF0010C0C
:100440000CFA00F3B1F800C00CEA03069E4220D17A
:1004500083004FF00F0C0CFA03F7BC4305FA03FCC2
:100460004CEA040491F803C0BCF1280F06D14FF008
:10047000010C0CFA00FCC2F814C00AE091F803C0A9
:10048000BCF1480F05D14FF0010C0CFA00FCC2F88A
:1004900010C0401C0828D1D31460B1F800C0BCF1D2
:1004A000FF0F34DD546800202EE000F1080C4FF0FF
:1004B000010808FA0CF3B1F800C00CEA03069E42EA
:1004C00021D183004FF00F0C0CFA03F7BC4305FA5F
:1004D00003FC4CEA040491F803C0BCF1280F05D1D9
:1004E00000F1080C08FA0CF8C2F8148091F803C067
:1004F000BCF1480F07D100F1080C4FF0010808FAD1
:100500000CF8C2F81080401C0828CED35460BDE817
:10051000F081416170470161704700BFFEE700BF95
:10052000FEE7704770B5002100230F22C47804B3A2
:10053000154C246804F4E064C4F5E064210AC1F1B8
:100540000403CA40447804FA03F184781440214338
:1005500009010E4C0678A155047804F01F0501240A
:10056000AC4005786D11AD0005F1E025C5F80041FE
:1005700009E0047804F01F050124AC40044D06781E
:10058000761145F8264070BD0CED00E000E400E077
:1005900080E100E002490143024A11607047000017
:1005A0000000FA050CED00E07047000029B1064A92
:1005B00012690243044B1A6104E0034A1269824340
:1005C000014B1A61704700000010024029B1064A31
:1005D00092690243044B9A6104E0034A92698243A0
:1005E000014B9A61704700000010024029B1064A91
:1005F000D2680243044BDA6004E0034AD2688243C3
:10060000014BDA60704700000010024030B5002155
:100610000022002400232D4D6D6805F00C0121B14E
:10062000042905D0082923D105E0294D056022E0E1
:10063000274D05601FE0254D6D6805F47012234DB0
:100640006D6805F48034022505EB92421CB9214DFA
:10065000554305600BE01D4D6D6805F400351DB177
:100660001C4D5543056002E0194D5543056002E0FD
:10067000174D056000BF00BF144D6D6805F0F00117
:100680000909154D6B5C0568DD4045600F4D6D68CF
:1006900005F4E061090A104D6B5C4568DD4085603A
:1006A0000A4D6D6805F46051C90A0B4D6B5C4568D5
:1006B000DD40C560054D6D6805F44041890B074D6F
:1006C0006B5CC568B5FBF3F5056130BD00100240F9
:1006D00000127A0000093D000000002010000020F8
:1006E00021B1028842F04002028004E002884FF605
:1006F000BF731A400280704710B504461148844207
:1007000008D101218014FFF771FF0021A014FFF729
:100710006DFF16E00C48844208D101210014FFF758
:1007200045FF00212014FFF741FF0AE007488442FB
:1007300007D10121C013FFF739FF0021E013FFF7B4
:1007400035FF10BD0030014000380040003C004043
:100750000246002013890B400BB1012000E000206D
:1007600070470146888970478181704710B5002223
:10077000028802F441520B884C8823438C8823431F
:10078000CC8823430C8923434C8923438C892343FE
:10079000CC8923431A430280838B4FF2FF7423409A
:1007A00083830B8A038210BD4FF6FF62914204D00F
:1007B000028842F48072028004E002884FF6FF63F0
:1007C0001A4002807047704710B500F001F810BD64
:1007D0000CB50020019000903348006840F4803050
:1007E0003149086000BF3048006800F400300090D4
:1007F0000198401C0190009818B90198B0F5A06FBD
:10080000F1D12948006800F4003010B101200090B7
:1008100001E0002000900098012843D1234800689F
:1008200040F01000214908600846006820F00300ED
:1008300008600846006840F0020008601A484068F6
:10084000194948600846406848600846406840F4D6
:10085000806048600846406820F47C104860084684
:10086000406840F4E81048600846006840F0807036
:10087000086000BF0C48006800F000700028F9D044
:100880000948406820F0030007494860084640686E
:1008900040F00200486000BF0348406800F00C00D0
:1008A0000828F9D10CBD00000010024000200240D1
:1008B0007047000010B51348006840F0010011496E
:1008C000086008464068104908400E4948600846DC
:1008D00000680E4908400B4908600846006820F48B
:1008E000802008600846406820F4FE0048604FF40D
:1008F0001F008860FFF768FF4FF000600449086040
:1009000010BD0000001002400000FFF8FFFFF6FEDF
:1009100008ED00E010B540F22551074800F030F82E
:10092000012807D1044800F0E7F80446612C01D102
:1009300000F06EFA10BD00000038014001F40072B2
:10094000B2F5007F00D100BFCA430280704721B1D9
:10095000828942F40052828104E082894DF6FF735D
:100960001A408281704702460020B1F5007F00D115
:1009700000BF13880B400BB1012000E0002070473E
:1009800070B50246002400230025002040F66A16B8
:10099000B14200D100BFC1F3421501F01F0301268F
:1009A00006FA03F3012D02D19689334006E0022DA9
:1009B00002D1168A334001E0968A33400C12012698
:1009C00006FA04F41688344013B10CB1012000E09B
:1009D000002070BDF0B5034600240026002500204D
:1009E00040F66A17B94200D100BF1846C1F342145D
:1009F00001F01F06012707FA06F5012C01D10C3082
:100A000004E0022C01D1103000E014301AB1076864
:100A10002F43076002E00768AF430760F0BD0000A6
:100A20002DE9F04786B005460E460024A24600BFD9
:100A3000A1460027B08900B100BF2F462C8A4CF692
:100A4000FF700440F08804432C82AC894EF6F3100A
:100A50000440B08831890843718908430443AC815C
:100A6000AC8A4FF6FF400440B0890443AC8201A831
:100A7000FFF7CCFD1F48874202D1DDF810A001E04E
:100A8000DDF80CA0A88900F4004040B10AEBCA00D0
:100A900000EB0A1031684900B0FBF1F807E00AEBFF
:100AA000CA0000EB0A1031688900B0FBF1F864203D
:100AB000B8FBF0F004012009642101FB1089A8892A
:100AC00000F4004040B1322000EBC900B0FBF1F06F
:100AD00000F00700044308E0322000EB0910642115
:100AE000B0FBF1F000F00F0004432C8106B0BDE82C
:100AF000F08700000038014001468888C0F30800F4
:100B00007047C1F308028280704700BFFEE7000013
:100B100000B587B001210C20FFF758FD0121080323
:100B2000FFF754FD48208DF81B001020ADF8180089
:100B300006A92B48FFF762FC18208DF81B00E02067
:100B4000ADF8180003208DF81A0006A92448FFF715
:100B500055FCE0212248FFF7DEFC2248FFF7CCFDE0
:100B60000020ADF804004FF48270ADF806000020BC
:100B7000ADF80800ADF80A000120ADF80C00400205
:100B8000ADF80E003820ADF810000020ADF81200CE
:100B90000720ADF8140001A91248FFF7E7FD4FF454
:100BA00080711048FFF700FE01210E48FFF798FD05
:100BB00010208DF81B000720ADF8180003208DF8D9
:100BC0001A0006A90848FFF719FC02210648FFF79A
:100BD000A0FC4FF4FA7000F067F807B000BD000009
:100BE0000008014000300140000C01400EB5012119
:100BF0000846FFF7EBFC0A208DF8000004208DF872
:100C0000010000208DF8020001208DF803006846E5
:100C1000FFF788FC04210020FFF7D0FB1020019093
:100C200000208DF808000C208DF8090001208DF8B7
:100C30000A0001A8FFF778FB102000F08DF90820CA
:100C400000F08AF9052000F02FF804210548FFF78D
:100C500062FC0A2000F028F801210248FFF759FC45
:100C60000EBD0000000C014070B54FF0FF350126AD
:100C700005E005221021022000F0DEF80546002DD7
:100C8000F7D16D1E05240BE005E005221146204634
:100C900000F0D2F80546002DF7D16D1E601CC4B2DD
:100CA0000C2CF1DD002070BD014642F228324A438F
:100CB0004FF0E0235A6101221A6100229A6100BFBD
:100CC0004FF0E022106900F001021AB100F4803206
:100CD000002AF5D000224FF0E0231A619A61704794
:100CE000FFF7E8FD4FF4E13000F0C4F8FFF710FF24
:100CF00000F020F8FFF7B8FFFFF778FF00BFFEE72E
:100D000070B5044601210A48FFF703FC44F02000B7
:100D1000FFF7C8FA0020FFF7C5FAFF20FFF7C2FA75
:100D2000054601210248FFF7F6FB284670BD00008A
:100D3000000C014070B504213048FFF7ECFB0321A3
:100D40002E48FFF7E6FB0A20FFF7AEFF00261AE069
:100D500004212A48FFF7DDFB4FF4FA70FFF7A4FFE8
:100D600004212648FFF7D7FB0A20FFF79DFF11203B
:100D700000F0F2F800F044F8922800D105E00A20D3
:100D8000FFF792FF761C052EE2DB00BF052E01D196
:100D9000B01F70BD0522C021032000F04DF80446AD
:100DA00014B14FF0FF30F4E76420FFF77DFF052218
:100DB0008621012000F040F8044614B14FF0FF30C6
:100DC000E7E705220021022000F036F8044614B1BE
:100DD0004FF0FF30DDE705250BE005E0052201219E
:100DE000284600F029F80446002CF7D1641E681C40
:100DF000C5B20C2DF1DD0020CBE70000000C014056
:100E000010B50020FFF77CFF0446204610BD00000F
:100E100010B503210748FFF77CFB0A2000F09CF87F
:100E20000520FFF741FF112000F096F80520FFF79D
:100E30003BFF10BD000C01402DE9F04107468846FC
:100E4000144600250AE04146384600F099F8064667
:100E500006B905E00A20FFF727FF6D1CA542F2DB6B
:100E600000BFA54203D14FF0FF30BDE8F081002064
:100E7000FBE7000010B586B0044601210420FFF70F
:100E8000A5FB01210846FFF7A1FB01218803FFF71D
:100E90009DFB03208DF816004FF40070ADF8140090
:100EA00018208DF8170005A92148FFF7A7FA4FF47D
:100EB0008060ADF8140004208DF8170005A91C48C7
:100EC000FFF79CFA01940020ADF80800ADF80A0085
:100ED000ADF80C00ADF810000C20ADF80E0001A923
:100EE0001448FFF79DFD4FF4C060FFF753FB25202A
:100EF0008DF8000001208DF801008DF802008DF8BA
:100F000003006846FFF70EFB012240F22551094815
:100F1000FFF760FD40210748FFF710FD202105483D
:100F2000FFF70CFD01210348FFF711FD06B010BDCE
:100F3000000801400038014010B50446214605482C
:100F4000FFF7DFFD00BF40210248FFF70CFD01283D
:100F5000F9D110BD0038014010B504460121074801
:100F6000FFF7D7FA2046FFF79DF90020FFF79AF91F
:100F700001210248FFF7CFFA10BD0000000C01402C
:100F800070B505460C4601210E48FFF7C2FA45F040
:100F90004000FFF787F90020FFF784F92046FFF7AC
:100FA00081F901210748FFF7B6FA0120FFF77CFE1F
:100FB0002846FFF7A5FEA04201D1002070BD4FF0EA
:100FC000FF30FBE7000C0140E80F000800000020A4
:100FD000140000008C010008FC0F00081400002021
:100FE00064060000A80100080000000001020304DC
:0C0FF000010203040607080902040608B9
:04000005080001ED01
:00000001FF
